:100000000C9406010C944D010C944D010C944D017F
:100010000C944D010C944D010C944D010C944D0128
:100020000C944D010C944D010C94D6130C94A8140F
:100030000C94520E0C944D010C944D010C944D01F6
:100040000C944D010C944D010C944D010C944D01F8
:100050000C944D010C94900E0C944D010C944D0198
:100060000C944D010C944D010C944D010C944D01D8
:100070000C944D010C944D010C944D010C944D01C8
:100080000C944D010C944D010C944D010C944D01B8
:100090000C944D010C944D010C944D010C944D01A8
:1000A0000C944D010C944D010C944D01910591055A
:1000B000BB05BB05EF07EF07EF07EF071606EF07D6
:1000C00001070107C707EF07EF07DC07151537150D
:1000D0002A1637152A167C159F152A16F4150716A9
:1000E000F1A1291E1F20212223242526271F272A8C
:1000F000502B141A0815171C180C12131A13310060
:10010000C0041607090A0B0D0E0F3316352852E1ED
:100110001D1B06190511103637311B4DE551E0291D
:100120004F5152502C2CF4F6F54FE4004F291E1F6E
:1001300020212223242526272D2E2AF22B141A08CB
:1001400015171C180C12132F303100010416070963
:100150000A0B0D0E0F33343528F0E11D1B0619056F
:1001600011103637314A4DE5F1E0E3E2AAA8A92C97
:100170002CF4F6F5E6E400F30C035A0058004B00AB
:100180004200440000000C0341006900720072004C
:10019000720000000403090409022200010100A00A
:1001A00032090400000103010100092111010001CD
:1001B0002240000705810308000A12011001000017
:1001C00000085E04B90701000102000105010906EB
:1001D000A101050719E029E715002501950875011A
:1001E0008102950175088101050819012905950508
:1001F000750191029501750391010507190029FF09
:10020000150026FF00950675088100C011241FBE49
:10021000CFEFDAE0DEBFCDBF04B603FE27C080918A
:100220009C0190919D01A0919E01B0919F0187300A
:10023000904BA740B04BD1F410929C0110929D01BD
:1002400010929E0110929F0114BE84B7877F84BFD5
:100250000FB6F894A8958091600088618093600043
:10026000109260000FBEE0E0F8E3099511E0A0E015
:10027000B1E0E6E9FCE202C005900D92AE30B107B4
:10028000D9F721E0AEE0B1E001C01D92AC39B20770
:10029000E1F70E942A110C9449160C94000084B1D5
:1002A0008F7A84B985B18F7A85B98AB18F728AB90C
:1002B0008BB18F728BB9089580917E01816080939C
:1002C0007E010E944F0184B1807584B985B18F6A27
:1002D00085B987B18F7387B988B1806C88B98AB1C5
:1002E000807D8AB98BB18F628BB980B38F7380BBED
:1002F00081B3806C81BBE8E1F1E0AEE0B1E0119246
:1003000011921D921D9281E0E232F807C1F7089523
:10031000BF92CF92DF92EF92FF920F931F93CF93F2
:10032000DF93AEE0EA2EA1E0FA2EE70110E001E053
:10033000B5E0BB2E123071F018F4113041F004C05A
:10034000133059F0143061F0269A2E980BC0249A7D
:100350002C9808C0579A5F9805C0569A5E9802C0BC
:10036000549A5C9880EA8A95F1F783B182958695D4
:100370008770802780FBCC24C0F8D12C369903C02D
:1003800082E090E002C080E090E0A601482B592B6B
:1003900026B1022E000C330B20953095C901882719
:1003A000990F881F9927880F991F880F991F482B2D
:1003B000592B2FB1022E000C330B20953095C9011B
:1003C0008827990F881F9927F3E0880F991FFA95BE
:1003D000E1F7842B952B7E9903C060E170E002C0A9
:1003E00060E070E0862B972B4D9903C060E270E0CF
:1003F00002C060E070E0862B972B4B9903C020E48D
:1004000030E002C020E030E0822B932B4A9903C0F9
:10041000E0E8F0E002C0E0E0F0E08E2B9F2B49998D
:1004200003C060E071E002C060E070E0862B972BB3
:10043000489903C020E032E002C020E030E0AC0187
:10044000422B532B23B1022E000C330B20953095F9
:10045000C9018827990F881F9927982F8827990FF6
:10046000990F842B952B1B9903C040E058E002C0E4
:1004700040E050E0842B952B1A9903C040E050E1F6
:1004800002C040E050E0842B952B199903C020E076
:1004900030E202C020E030E0822B932B189903C099
:1004A00020E030E402C020E030E0822B932B288152
:1004B00039812817390721F099838883B092000188
:1004C0000E944F011F5F2296153009F033CF8091B3
:1004D00000018823C9F0815080930001882339F0FE
:1004E000AFE9BFE01197F1F700C000000DC0E8E1EF
:1004F000F1E0D7018D919D917D0181939193B8E1B8
:10050000EB16B1E0FB06A9F781E0DF91CF911F91D7
:100510000F91FF90EF90DF90CF90BF900895E82F5C
:10052000F0E0EE0FFF1FE85EFE4F8081918108959D
:1005300080E885BF85BF859A8D980895909327019F
:10054000809326010895E0912601F09127013097CC
:1005500021F00190F081E02D099480E00895E09170
:100560002601F0912701309721F00280F381E02DE0
:100570000994089520912401309125012817390705
:1005800071F09093250180932401E0912601F09170
:100590002701309721F00680F781E02D0994089516
:1005A00020912201309123012817390771F090938F
:1005B000230180932201E0912601F09127013097D9
:1005C00021F00084F185E02D099408950C94A9038D
:1005D0000E947B0E0C945C015F926F927F928F92CF
:1005E0009F92AF92BF92CF92DF92EF92FF920F93C2
:1005F0001F93CF93DF9300D000D01F92CDB7DEB70B
:100600000E94880199E2692E91E0792E00E010E0C5
:1006100088248394912C502E802F0E948F026C018D
:10062000F301A190B1903F01A826B926A114B1040D
:10063000B1F40F5F1F4F0530110569F78FEF898304
:100640008A831B820E94840E8160782F9D838C8315
:1006500049815A816B818D810E94AD0340C0809198
:100660007E0181FD0E94AA0380E090E07401082EC3
:1006700002C0EE0CFF1C0A94E2F795012E213F21E7
:10068000232B41F189835A82CE20DF2081E0CD28BF
:1006900009F480E08B830E94840E8160782F9D8313
:1006A0008C8349815A816B818D810E94AD03498180
:1006B0005A816B817C818D810E94FD0D000F111F7D
:1006C000F801E75DFE4F80819181E826F926F182ED
:1006D000E08205C001968F30910541F6AACF0E94B5
:1006E000FC0D0E94A302909128018917D1F00E946D
:1006F000A302809328010F900F900F900F900F90FE
:10070000DF91CF911F910F91FF90EF90DF90CF90ED
:10071000BF90AF909F908F907F906F905F900C9460
:100720000E0E0F900F900F900F900F90DF91CF91C2
:100730001F910F91FF90EF90DF90CF90BF90AF90FF
:100740009F908F907F906F905F9008950C94980287
:1007500008950895089508950895CF93DF93CDB730
:10076000DEB72B970FB6F894DEBF0FBECDBF942F28
:100770004F83252F588769877A878B874A855B85C2
:10078000452B31F02F3F31F481E09F3F19F403C036
:1007900081E001C080E080FD07C04F8158856985F8
:1007A0007A858B850E94FD0DDE01119686E0FD01A4
:1007B00011928A95E9F785E0FE01379601900D9236
:1007C0008A95E1F749815A816B817C818D819E8177
:1007D0000E94CD0A2B960FB6F894DEBF0FBECDBF98
:1007E000DF91CF910895882309F4DFC08238A1F406
:1007F0000E94A30281FDD9C089E30E945E0D0E9480
:10080000D60D2FEF81EE94E0215080409040E1F72B
:1008100000C0000089E315C08338B9F40E94A30228
:1008200080FDC3C083E50E945E0D0E94D60D2FEFB0
:1008300081EE94E0215080409040E1F700C000003C
:1008400083E50E947B0D0C94D60D8438A1F40E94A0
:10085000A30282FDAAC087E40E945E0D0E94D60D0D
:100860002FEF81EE94E0215080409040E1F700C0EE
:10087000000087E4E6CF9CEF980F913A18F40E94AD
:100880005E0DE1CF90E2980F983050F4877091E0C0
:1008900001C0990F8A95EAF7892F0E949C0DD3CF4A
:1008A0009BE5980F933070F4853A29F0863A31F041
:1008B00083E890E005C081E890E002C082E890E023
:1008C0000C94BA0298E5980F953108F06EC0883AFA
:1008D00061F1893A69F18A3A71F18B3A79F18C3A8E
:1008E00081F18D3A89F18E3A91F18F3A99F1813BFC
:1008F000A1F1803BA9F1823BB1F1833BB9F1843B8B
:10090000C1F1853BC9F1863BD1F1873BD9F1883BE9
:10091000E1F1893BE9F18A3BF1F18B3BF9F18C3B49
:1009200009F43FC080E090E03EC082EE90E03BC022
:1009300089EE90E038C08AEE90E035C085EB90E01B
:1009400032C086EB90E02FC083EB90E02CC084EBAC
:1009500090E029C087EB90E026C08CEC90E023C0AB
:100960008DEC90E020C083E891E01DC08AE891E022
:100970001AC082E991E017C084E991E014C081E2D5
:1009800092E011C083E292E00EC084E292E00BC0DC
:1009900085E292E008C086E292E005C087E292E03C
:1009A00002C08AE292E00C94D0020895882309F4F0
:1009B00066C08238A1F40E94A30281FF60C089E36F
:1009C0000E945E0D0E94D60D2FEF81EE94E0215023
:1009D00080409040E1F700C0000089E315C08338F3
:1009E000B9F40E94A30280FF4AC083E50E945E0D15
:1009F0000E94D60D2FEF81EE94E021508040904070
:100A0000E1F700C0000083E50E947B0D0C94D60D39
:100A10008438A1F40E94A30282FF31C087E40E94BF
:100A20005E0D0E94D60D2FEF81EE94E021508040A4
:100A30009040E1F700C0000087E4E6CF9CEF980FFC
:100A4000913A10F390E2980F983050F4877091E04B
:100A500001C0990F8A95EAF7892F0E94A20DD6CF7F
:100A60009BE5980F933020F480E090E00C94BA025C
:100A7000885A853120F480E090E00C94D0020895EB
:100A8000882321F00E949C0D0C94D60D0895882394
:100A900021F00E94A20D0C94D60D0895CF92DF9202
:100AA000EF92FF920F931F93CF93DF9300D000D06C
:100AB0001F92CDB7DEB76C0185E0F601DE0111961D
:100AC00001900D928A95E1F7F601208181814381A1
:100AD0005481452B31F08F3F31F491E02F3F19F4D1
:100AE00003C091E001C090E090FD79C2F601E28080
:100AF000F580F2949FE0F92229838A8389819A8183
:100B00000E941D0D8C010E941C0D0E942E0CE12FD5
:100B1000E295EF708E2F90E0FC01EA5AFF4F0C94A3
:100B20004316812F807F1F70882311F01295107F4C
:100B3000EE2049F0112309F407C2812F0E94AF0D66
:100B40000E94D60D01C2802F0E94D604112309F401
:100B500046C2812F0E94B50D0F900F900F900F90FD
:100B60000F90DF91CF911F910F91FF90EF90DF9049
:100B7000CF900C94D60D812F807F1F70803211F0A2
:100B80001295107F002319F0013009F12BC0EE20DF
:100B9000A9F0FF2059F1F1E0812FFF1228C00F903A
:100BA0000F900F900F900F90DF91CF911F910F91A9
:100BB000FF90EF90DF90CF900C94BF0DFF2021F0BD
:100BC00081E0F81609F40BC20E94C20D2DC0EE2080
:100BD000E9F0E5E0EF1508F402C20E94990D8123C7
:100BE00029F022C0EE20F1F0F11015C0812F0F90F6
:100BF0000F900F900F900F90DF91CF911F910F9159
:100C0000FF90EF90DF90CF900C944005F4E0FF153B
:100C100008F4E5C109C0F601858180FF95C18F7098
:100C20008583E4CFF110A3C1812F16C1812F83707A
:100C300009F070C0E110D3C1202F229526952770AE
:100C4000220F220F602F6F70862F90E0A0E0B0E09F
:100C50006C017D01022E04C0CC0CDD1CEE1CFF1CBF
:100C60000A94D2F704FF12C08FE090E0A0E0B0E059
:100C700004C0880F991FAA1FBB1F2A95D2F7BC0179
:100C8000CD01609570958095909503C060E070E00F
:100C9000CB011695169513701230B1F040F56C2902
:100CA0007D298E299F29113031F10F900F900F90DF
:100CB0000F900F90DF91CF911F910F91FF90EF90C8
:100CC000DF90CF900C94410C6C297D298E299F29AF
:100CD0000F900F900F900F900F90DF91CF911F9179
:100CE0000F91FF90EF90DF90CF900C94530C0E94E7
:100CF000410CC701B6010F900F900F900F900F900D
:100D0000DF91CF911F910F91FF90EF90DF90CF90E7
:100D10000C942F0CEE2019F0812F817001C0869564
:100D2000882309F45CC1202F229526952770220F75
:100D3000220F602F6F70862F90E0A0E0B0E06C0172
:100D40007D01022E04C0CC0CDD1CEE1CFF1C0A949D
:100D5000D2F704FF12C08FE090E0A0E0B0E004C042
:100D6000880F991FAA1FBB1F2A95D2F7BC01CD017E
:100D7000609570958095909503C060E070E0CB0120
:100D80001695169513701230B1F040F56C297D2937
:100D90008E299F29113031F10F900F900F900F90F5
:100DA0000F90DF91CF911F910F91FF90EF90DF9007
:100DB000CF900C94F80C6C297D298E299F290F90D7
:100DC0000F900F900F900F90DF91CF911F910F9187
:100DD000FF90EF90DF90CF900C940A0D0E94F80CDA
:100DE000C701B6010F900F900F900F900F90DF91F9
:100DF000CF911F910F91FF90EF90DF90CF900C94C7
:100E0000E60C003FC1F128F480E4800F803250F0FE
:100E100096C0023F09F45EC008F449C0033F09F4DC
:100E20006CC08DC0F02FF071FF2E812F8F71EE20DE
:100E300051F00E947F0C802FFF2019F08295807F57
:100E4000D6CE8F70D4CE0E94A00C802FFF2019F038
:100E50008295807F01C08F700F900F900F900F9040
:100E60000F90DF91CF911F910F91FF90EF90DF9046
:100E7000CF900C944705EE20A9F084E08F1508F47C
:100E8000AEC0812F8F710F900F900F900F900F9029
:100E9000DF91CF911F910F91FF90EF90DF90CF9056
:100EA0000C94C50CE5E0EF1508F499C0EACFEE20EC
:100EB00099F0812F8F710F900F900F900F900F90DE
:100EC000DF91CF911F910F91FF90EF90DF90CF9026
:100ED0000C947F0CEE2069F3812F8F710F900F908F
:100EE0000F900F900F90DF91CF911F910F91FF9076
:100EF000EF90DF90CF900C94A00CEE2089F0812F22
:100F00008F710F900F900F900F900F90DF91CF91F6
:100F10001F910F91FF90EF90DF90CF900C946A0C8F
:100F20000F900F900F900F900F90DF91CF911F9126
:100F30000F91FF90EF90DF90CF900C94650CEE2016
:100F400099F0FF2009F4B5CF802F0F900F900F90EC
:100F50000F900F90DF91CF911F910F91FF90EF9025
:100F6000DF90CF900C94F303FF2009F4B5CF802FCE
:100F70000F900F900F900F900F90DF91CF911F91D6
:100F80000F91FF90EF90DF90CF900C94D604412FFB
:100F90004F70602FC6010E94D70E0F900F900F90D8
:100FA0000F900F90DF91CF911F910F91FF90EF90D5
:100FB000DF90CF900C947B0B412F4F70602FC601B8
:100FC0000F900F900F900F900F90DF91CF911F9186
:100FD0000F91FF90EF90DF90CF900C94DA0E0F906E
:100FE0000F900F900F900F90DF91CF911F910F9165
:100FF000FF90EF90DF90CF9008950E94BC0D0E946B
:101000008B0D0C94D60D0E94AC0D0C94FD070E9424
:101010001D0D292F22952F702C3030F42A30A0F48A
:101020002250223030F021C02C30C9F02F30B9F0DE
:101030001CC0853A28F48430B0F4823028F413C000
:1010400090E2980F983078F0883E30F4803E58F463
:101050008450813A50F407C0803F39F404C093FBB8
:10106000882780F9089581E0089580E00895CF935E
:10107000DF9300D000D01F92CDB7DEB70F900F9056
:101080000F900F900F90DF91CF910895CF93DF9342
:1010900000D000D000D0CDB7DEB726960FB6F894BA
:1010A000DEBF0FBECDBFDF91CF9108951F93CF93C9
:1010B000DF93C091330116E080913401C81799F095
:1010C000D0E01C9FF0011D9FF00D1124EB5CFE4F42
:1010D0004081518162817381848195810E9446089B
:1010E0002196C770E9CFDF91CF911F91089540916C
:1010F000650150916601609167017091680180916E
:10110000690190916A010C944608CF9380916A011D
:1011100082958F7009F05FC080916701882309F480
:101120005AC080913301B091340170916501A09152
:101130006601409168015091690191E07F3F09F09B
:1011400090E0692FC6E08B1709F445C041155105A1
:1011500021F0AF3F21F020E003C021E001C0262FA5
:1011600090E020FD35C0C89FF001C99FF00D11240B
:10117000EB5CFE4F21812A132BC02081271328C04E
:101180002281211125C0238134812417350710F4D1
:1011900021503109241B350B283C3105C8F420911E
:1011A0006A012F70206120936A0126E0289FF001D8
:1011B000299FF00D1124E65CFE4F80818F708061C5
:1011C000808385E691E00E944E05CF910C945608ED
:1011D00001968770B8CFCF910895AF92BF92CF920A
:1011E000DF92EF92FF920F931F93CF93DF93CDB7D0
:1011F000DEB761970FB6F894DEBF0FBECDBF8C018E
:1012000085E0F801DE011D9601900D928A95E1F7C7
:10121000D8014C9111965C9111971296EC903091F7
:101220006501609166018091680190916901009764
:1012300031F06F3F31F421E03F3F19F403C021E06A
:1012400001C020E0B22FB170BB2E20FD64C1F801B7
:10125000C380D480A0906701AA2009F4C3C0209164
:101260006A01C816D90628F0D601A81BB90BCD0112
:1012700004C0809590958C0D9D1DFF24F394883CAF
:10128000910580F0F12C207F09F09CC07C2DD98A3B
:10129000C88A6E2D89890E94370885E691E00E94F0
:1012A0004E05B4C0822F807F09F054C0561314C07D
:1012B000431312C0FE2CE1100FC02F702061209349
:1012C0006A010E94770885E691E00E944E058091B0
:1012D0006A01F80185834FC1CD2831F05F3F31F4B9
:1012E00081E04F3F19F403C081E001C080E080FD40
:1012F00003C081E08E2502C080E090E0F82FF170FD
:10130000FF2E80FF1CC0809133012091340136E014
:10131000821709F40DC190E0389FF001399FF00D5C
:101320001124EB5CFE4F6181561306C060814613A9
:1013300003C06281E61203C001968770E9CFFE2CDC
:10134000EE2009F418C180916A01816080936A01DE
:10135000F12C11C1561309C0431307C0E11005C099
:1013600080916A01F8018583B0C04D875E878D85C5
:101370009E850E940708882379F1EE2069F120916B
:101380006A01822F82958F7090E0029774F08091AD
:1013900065019091660198878F831986DB86CA86DE
:1013A0002C87CE0107960E944E0586E0F801A5E63F
:1013B000B1E001900D928A95E1F70E9485080E94A4
:1013C00077080DC0561761F14D875E878D859E8524
:1013D0000E940708811138C0C8010E944E05FF24F1
:1013E000F394C9C0C816D90608F446C0F601E81B34
:1013F000F90BCF01883C910508F443C0F12C7C2DFA
:10140000D98AC88A6E2D89890E943708E5E6F1E0FD
:1014100086E0DF011D928A95E9F70E947708ABC04C
:101420004313D2CFE110D0CF80916A01F8018583B8
:10143000C8010E944E0586E0E5E6F1E0DF011D925D
:101440008A95E9F7FA2C97C0EE2031F220916A01D3
:10145000822F82958F7090E002970CF4A6CF809136
:101460006501909166019A8389831B82DD82CC821B
:101470002E83CE01019697CF809590958C0D9D1D62
:10148000B9CFFE2CEE2009F4A7CF561333C0431377
:1014900031C020916A0120FD24C0822F82958F7077
:1014A000482F50E041155105E1F0D80115962C93D5
:1014B00015974F30510549F08F5F982F9295907F87
:1014C000822F8F70892B15968C93C8010E944E0530
:1014D00086E0F801A5E6B1E001900D928A95E1F76A
:1014E0009CCF86E0F801A5E6B1E001900D928A95C7
:1014F000E1F741C04D875E878D859E850E94070874
:10150000811153CF80916A01816080936A01C80183
:101510000E944E0530C0EE2009F45ECF4D875E87F5
:101520008D859E850E940708882309F455CF3DCFFD
:101530004D875E878D859E850E941D0D292F2295E2
:101540002F70223028F49F7039F0811105C00BC034
:10155000243028F49F7049F4805E883020F0C80160
:101560000E944E05BF2CFB2C06C0D80115969C91FD
:10157000907F91F7F8CF8F2D61960FB6F894DEBF6C
:101580000FBECDBFDF91CF911F910F91FF90EF90D4
:10159000DF90CF90BF90AF9008951F93CF93DF93CC
:1015A000CDB7DEB72C970FB6F894DEBF0FBECDBF18
:1015B0004F83588769877A878B879C87CE010796E8
:1015C0000E94ED088823D1F09F8188852A853B857C
:1015D000232B31F08F3F31F481E09F3F19F403C09A
:1015E00081E001C080E080FD47C04F81588569855A
:1015F0007A858B859C850E9446083EC086E0FE0168
:101600003796DE01119601900D928A95E1F7FF81E0
:10161000E8856A857B856115710531F0EF3F31F40E
:1016200081E0FF3F19F403C081E001C080E080FD4C
:1016300023C02091340130E0C901019687709927B9
:101640004091330150E084179507F1F1F983EA8363
:101650007D836C8396E0929FD001939FB00D1124FF
:10166000AB5CBE4FFE01319601900D929A95E1F769
:10167000809334010E94560816E0809133019091C6
:101680003401891771F1189FC00111248B5C9E4FA2
:101690000E94ED08882329F1E09133011E9FF0019B
:1016A0001124EB5CFE4F4081518162817381848102
:1016B00095810E9446088091330190E001968770E1
:1016C000992780933301D9CF0E94030810923401E7
:1016D00010923301E5E6F1E086E0DF011D928A9584
:1016E000E9F72C960FB6F894DEBF0FBECDBFDF91A1
:1016F000CF911F910895DF92EF92FF920F931F9366
:10170000CF93DF93FC01892B09F488C0E12CF12CE5
:10171000DD24D394EF0121968491853709F460C0CC
:1017200058F4843708F04EC0843008F068C0813027
:10173000D1F0823071F172C0883709F45BC050F487
:10174000863709F453C0873709F068C08E2D0E9490
:10175000A90D52C09CE7980F903708F05FC08F77B3
:101760000E94D6044EC08F010E5F1F4FFE01849170
:1017700090E2980F983050F48770FD2D01C0FF0F54
:101780008A95EAF78F2F0E94AF0D15C00E94F303D0
:1017900014C08F010E5F1F4FFE01849190E2980FDD
:1017A000983068F48770FD2D01C0FF0F8A95EAF725
:1017B0008F2F0E94B50D0E94D60DE80122C00E9415
:1017C000D604FBCFCF010296FE01C491CC2361F079
:1017D000EFE9FFE03197F1F700C00000C150F6CF0C
:1017E000CF010296FE01F490EC010BC00E94990D0E
:1017F000E82E07C00E94AC0D0E94D60D02C00E94C8
:10180000F3038F2D882341F0EFE9FFE03197F1F7E3
:1018100000C000008150F6CFFE017CCFDF91CF9158
:101820001F910F91FF90EF90DF90089560936F01EB
:101830007093700180937101909372010E940C0E5D
:101840000C94FD0760936B0170936C0180936D01A4
:1018500090936E010E940D0E0C94FD0708950F9356
:101860001F9300916F0110917001209171013091CF
:101870007201602B712B822B932B1F910F910C9473
:10188000160C0F931F9300916F011091700120911E
:1018900071013091720160237123822393231F9180
:1018A0000F910C94160C0F931F9300916F011091E0
:1018B0007001209171013091720160277127822798
:1018C00093271F910F910C94160C60E070E0CB01F0
:1018D0000C94220C0F931F9341E050E060E070E005
:1018E0008A019B0104C0000F111F221F331F8A951C
:1018F000D2F7C901B8011F910F910C94220C0F93DC
:101900001F9341E050E060E070E004C0440F551FB9
:10191000661F771F8A95D2F780916B0190916C01B9
:10192000A0916D01B0916E018A019B01082B192BCA
:101930002A2B3B2BC901B8011F910F910C94220C4B
:101940000F931F9341E050E060E070E004C0440F4B
:10195000551F661F771F8A95D2F740955095609561
:10196000709580916B0190916C01A0916D01B09187
:101970006E018A019B01082319232A233B23C901F5
:10198000B8011F910F910C94220C0F931F9341E00B
:1019900050E060E070E004C0440F551F661F771FE1
:1019A0008A95D2F780916B0190916C01A0916D01A5
:1019B000B0916E018A019B01082719272A273B272E
:1019C000C901B8011F910F910C94220C0F931F9322
:1019D00000916B0110916C0120916D0130916E01AD
:1019E000602B712B822B932B1F910F910C94220C47
:1019F0000F931F9300916B0110916C0120916D0169
:101A000030916E0160237123822393231F910F91E4
:101A10000C94220C0F931F9300916B0110916C0199
:101A200020916D0130916E016027712782279327E5
:101A30001F910F910C94220C0895CF92DF92EF9298
:101A4000FF920F931F93CF93DF938C01C0906B0194
:101A5000D0906C01E0906D01F0906E0180916F016B
:101A600090917001A0917101B0917201C82AD92A98
:101A7000EA2AFB2ACFE1D0E0D701C6010C2E04C030
:101A8000B695A795979587950A94D2F780FF07C0DA
:101A9000B8018C2F0E94F40E8130910531F421970A
:101AA00058F7B80180E00E94F40EDF91CF911F91AA
:101AB0000F91FF90EF90DF90CF900895209101015A
:101AC00030910201F90132969FEF40E05191851764
:101AD00089F09F3F19F4511101C0942F4F5F463098
:101AE000A9F79F3F39F0F901E90FF11D97FDFA952C
:101AF000828308950895E0910101F09102019F0110
:101B00002A5F3F4F9281891301C012823196E217FA
:101B1000F307C1F7089581E090E0E0910101F091B1
:101B20000201E80FF91F1082019688309105A9F78C
:101B3000089580917D01089590917D01892B809376
:101B40007D010895809590917D01892380937D0189
:101B5000089580937D01089510927D0108959091DC
:101B60007C01892B80937C010895809590917C0164
:101B7000892380937C01089510927C0108958093BD
:101B8000730108951092730108958091010190915D
:101B90000201FC0131969C01285F3F4F80E091914A
:101BA00091118F5FE217F307D1F70895E0910101DA
:101BB000F091020180917D018083E0910101F0911B
:101BC0000201908180917C01892B80838091730137
:101BD000882361F0E0910101F09102019081892B4D
:101BE00080830E94C50D81111092730180910101C3
:101BF000909102010C94AF020895CF93DF9300D02F
:101C000000D01F92CDB7DEB70F900F900F900F90BE
:101C10000F90DF91CF910895089508950C94A60335
:101C200080919301843021F110927F0120E488E1BA
:101C300090E00FB6F894A895809360000FBE2093B3
:101C4000600083B7817F846083BF83B7816083BF77
:101C50007894889583B78E7F83BF0FB6F894A89544
:101C600080916000886180936000109260000FBED8
:101C70000895CF930E94AB030E9488010E94AC0399
:101C8000C0E08C2F0E948F02892B29F4CF5FC530D2
:101C9000C1F780E001C081E0CF9108950E94A803C0
:101CA0000C9403081F920F920FB60F9211248F937A
:101CB0009F93AF93BF9380917F01811113C0809157
:101CC000800190918101A0918201B09183014196A0
:101CD000A11DB11D8093800190938101A093820189
:101CE000B0938301BF91AF919F918F910F900FBEE1
:101CF0000F901F90189582E084BD93E095BD9AEFF8
:101D000097BD80936E0008952FB7F894809180015D
:101D100090918101A0918201B09183012FBF08951C
:101D20001F920F920FB60F9211248F939F93AF9330
:101D3000BF938091800190918101A0918201B09127
:101D400083010196A11DB11D8093800190938101B3
:101D5000A0938201B0938301BF91AF919F918F9126
:101D60000F900FBE0F901F9018950E945B13F89470
:101D70002FEF87EA91E6215080409040E1F700C0C4
:101D8000000087E090EBDC0180939C0190939D0123
:101D9000A0939E01B0939F019CE088E10FB6F89458
:101DA000A895809360000FBE90936000FFCF80E005
:101DB00090E0089508952BE4829FC0011124FC0156
:101DC0002FE0729FE00DF11D1124E60FF11DEE5181
:101DD000FF4F84910895E82FF0E0EE0FFF1FE05AC7
:101DE000F0408591949108950E94DB0E90E4980F45
:101DF000903218F40E94EB0E08958D3B50F4883A0F
:101E0000A0F5853A28F5843000F5813009F49DC0AD
:101E100099C0883E98F4803EC0F48F3B09F092C090
:101E20000E9403082FEF80E792E02150804090400D
:101E3000E1F700C000000E94B50E84C0803F08F4A6
:101E400081C0282F30E0306582C0282F30E07FC06D
:101E5000853A29F0863A31F023E830E478C021E869
:101E600030E475C022E830E472C0883A61F1893A02
:101E700069F18A3A71F18B3A79F18C3A81F18D3AB4
:101E800089F18E3A91F18F3A99F1813BA1F1803B32
:101E9000A9F1823BB1F1833BB9F1843BC1F1853BB0
:101EA000C9F1863BD1F1873BD9F1883BE1F1893B10
:101EB000E9F18A3BF1F18B3BF9F18C3B09F43FC02E
:101EC00020E034E444C022EE34E441C029EE34E49E
:101ED0003EC02AEE34E43BC025EB34E438C026EBA8
:101EE00034E435C023EB34E432C024EB34E42FC0B7
:101EF00027EB34E42CC02CEC34E429C02DEC34E482
:101F000026C023E835E423C02AE835E420C022E9CE
:101F100035E41DC024E935E41AC021E236E417C0D7
:101F200023E236E414C024E236E411C025E236E4AC
:101F30000EC026E236E40BC027E236E408C02AE2EF
:101F400036E405C020E030E002C021E030E0C90105
:101F5000089580918D0108950895CF93DF9300D067
:101F60001F92CDB7DEB720919301243021F523E0F5
:101F700029839B838A8381E08093E9008FEF90918E
:101F8000E800815095FD06C095ED9A95F1F70000A7
:101F90008111F5CF8091E80085FF0DC040E050E051
:101FA00063E070E0CE0101960E94CA118091E800C2
:101FB0008E778093E8000F900F900F90DF91CF9174
:101FC0000895CF93DF9300D01F92CDB7DEB7209155
:101FD0009301243021F522E029839B838A8381E0C9
:101FE0008093E9008FEF9091E800815095FD06C045
:101FF00095ED9A95F1F700008111F5CF8091E800F9
:1020000085FF0DC040E050E063E070E0CE01019636
:102010000E94CA118091E8008E778093E8000F90AB
:102020000F900F90DF91CF910895CF93DF93209180
:102030009301243039F521E02093E9002FEF30910E
:10204000E800215035FD06C035ED3A95F1F7000066
:102050002111F5CF2091E80025FF14C0EC0140E0EC
:1020600050E068E070E00E94CA118091E8008E772D
:102070008093E80088E0FE01A5E8B1E001900D92B0
:102080008A95E1F7DF91CF910895809192018111B6
:1020900009C00E945B130E94B8138091E200846023
:1020A0008093E2000895109292010895089542E00D
:1020B00061EC81E00C94D41280919501833009F495
:1020C00053C030F4813071F0823009F48CC008952F
:1020D0008A3009F478C08B3009F45EC0893009F089
:1020E0009AC020C080919401813A09F094C08091F7
:1020F000E800877F8093E800809198019091990192
:10210000892B21F468E085E891E003C060E080E07D
:1021100090E070E00E9415128091E8008B77809328
:10212000E800089580919401813209F074C0809193
:10213000980190919901892B09F06DC08091E80078
:10214000877F8093E8008091E80082FD05C0809140
:1021500093018111F8CF5FC08091F10080938D01D0
:102160008091E8008B7753C080919401813A09F007
:1021700052C08091980190919901892B09F04BC030
:102180008091E800877F8093E8008091E80080FFDD
:10219000FCCF80910D0136C0809194018132D9F538
:1021A0008091980190919901892BA9F58091E8007F
:1021B000877F8093E8000E940913809196018093A5
:1021C0000D010C94030880919401813221F58091D6
:1021D000E800877F8093E8000E94091380919701AF
:1021E00080938E01089580919401813AA1F48091A9
:1021F000E800877F8093E8008091E80080FFFCCFB3
:1022000080918E018093F1008091E8008E77809319
:10221000E8000C940913089508950C940C11809112
:102220008D018093840110928D0180E00E949802BC
:102230000E94A8030C9403080C940F110E94100E26
:1022400080919101882329F00E94390E81110C940C
:10225000B411089584B7877F84BF0FB6F894A8950A
:1022600080916000886180936000109260000FBED2
:1022700090E080E80FB6F89480936100909361003D
:102280000FBE0E940D110E94E6020E945B130E9485
:10229000B8138091E20084608093E200789480918A
:1022A00093018430E1F70E94E80283E091E00E940C
:1022B0009E020E940C1180919301853019F40E94B6
:1022C0001E11F9CF0E94EC02F6CF0E944E0E8091B3
:1022D000840180938D0108950C946511292F332773
:1022E00023303105C1F058F42130310579F0223026
:1022F000310591F582E290E028E931E031C02132E8
:102300003105E1F02232310501F126C082E190E091
:102310002AEB31E025C099278130910549F028F05A
:102320000297D1F4E8E7F1E005C0E4E9F1E002C08A
:10233000E6E8F1E0849190E09F0112C061110CC0C9
:1023400089E090E02AEA31E00BC0611105C080E429
:1023500090E02CEC31E004C080E090E020E030E040
:10236000FA0131832083089580E189BD82E189BD2E
:1023700009B400FEFDCF8091D8008F7D8093D800F6
:102380008091E00082608093E0008091E00081FD18
:10239000FCCF0895CF92DF92EF92FF920F931F939D
:1023A000CF93DF93EC018B017A010E9428138111F6
:1023B00033C0E114F10439F0F70180819181081BE9
:1023C000190BC80FD91FC12CD12C0115110519F1FA
:1023D0008091E80085FD16C08091E8008E7780939B
:1023E000E800E114F10449F0F70180819181C80E01
:1023F000D91ED182C08285E00FC00E942813882395
:1024000021F30AC089918093F10001501109FFEF77
:10241000CF1ADF0ADACF80E0DF91CF911F910F91C1
:10242000FF90EF90DF90CF90089520919A01309126
:102430009B012617370748F06115710539F4209183
:10244000E8002E772093E80001C0B901FC0120E0EC
:102450006115710579F1809193018823F1F185303F
:10246000F1F18091E80083FD3CC08091E80082FD9D
:102470002EC08091E80080FFEBCF2091F300809187
:10248000F20090E0922B6115710551F088309105B2
:1024900038F421912093F100615071090196F3CF36
:1024A00021E0089709F020E08091E8008E77809382
:1024B000E800CECF2111CFCF0AC0809193018823AD
:1024C00061F0853061F08091E80083FD0AC0809161
:1024D000E80082FFF2CF80E0089582E0089583E073
:1024E000089581E0089520919A0130919B0126176B
:1024F000370748F06115710539F42091E8002E770F
:102500002093E80001C0B901FC0120E061157105CC
:1025100091F180919301882309F440C0853009F43A
:102520003FC08091E80083FD3DC08091E80082FDBE
:102530002FC08091E80080FFE9CF2091F3008091C7
:10254000F20090E0922B6115710559F088309105E9
:1025500040F424912093F100319661507109019665
:10256000F2CF21E0089709F020E08091E8008E7713
:102570008093E800CBCF2111CCCF0AC0809193018A
:10258000882361F0853061F08091E80083FD0AC006
:102590008091E80082FFF2CF80E0089582E0089504
:1025A00083E0089581E00895982F973068F590931F
:1025B000E900981739F07091EC002091ED005091EE
:1025C000F00003C0242F762F50E021FD02C09F5F52
:1025D000ECCF3091EB003E7F3093EB003091ED007B
:1025E0003D7F3093ED003091EB0031603093EB0094
:1025F0007093EC002093ED005093F0002091EE00DA
:1026000027FDE5CF80E008958F708093E90081E099
:1026100008958091940187FF11C08091E80082FDA8
:1026200005C0809193018111F8CF11C08091E8001D
:102630008B770BC080919301882349F08091E8004B
:1026400080FFF8CF8091E8008E778093E8000895AE
:102650002091E4003091E50095E64091EC00842F54
:10266000817040FF23C08091E80080FD1DC08091F3
:102670009301882399F0853099F08091EB0085FDD6
:1026800011C04091E4005091E5002417350729F36B
:10269000915011F09A01E1CF84E0089582E008950D
:1026A00083E0089581E0089580E008954091E80076
:1026B00042FFDDCF08950E94C9130E94D113E0EEBE
:1026C000F0E0808181608083E8EDF0E080818F77A9
:1026D000808319BCA7EDB0E08C918E7F8C938081B4
:1026E0008F7E80831092920108950F931F93CF9352
:1026F000DF930E94C9130E94D113C8EDD0E08881F6
:102700008F77888388818068888388818F7D88839C
:1027100019BC1092930110928F01109291011092A6
:10272000900100EE10E0F80180818B7F808388812A
:102730008160888342E060E080E00E94D412E1EE94
:10274000F0E080818E7F8083E2EEF0E08081816026
:102750008083808188608083F80180818E7F808380
:10276000888180618883DF91CF911F910F910895B7
:10277000E8EDF0E080818F7E8083E7EDF0E08081FE
:102780008160808384E082BF81E0809392010C9419
:102790007513E8EDF0E080818E7F80831092E20077
:1027A00008951092DA001092E10008951F920F929E
:1027B0000FB60F9211242F933F934F935F936F9314
:1027C0007F938F939F93AF93BF93EF93FF938091EA
:1027D000E10082FF0BC08091E20082FF07C0809180
:1027E000E1008B7F8093E1000E9442168091DA0025
:1027F00080FF1FC08091D80080FF1BC08091DA004D
:102800008E7F8093DA008091D90080FF0DC080E137
:1028100089BD82E189BD09B400FEFDCF81E08093CE
:1028200093010E94451005C019BC109293010E94AB
:1028300053108091E10080FF19C08091E20080FF79
:1028400015C08091E2008E7F8093E2008091E200CB
:1028500080618093E2008091D80080628093D800EC
:1028600019BC85E0809393010E941C118091E100C6
:1028700084FF30C08091E20084FF2CC080E189BDDC
:1028800082E189BD09B400FEFDCF8091D8008F7D23
:102890008093D8008091E1008F7E8093E100809149
:1028A000E2008F7E8093E2008091E200816080935D
:1028B000E20080918F01882311F084E007C08091AD
:1028C000E30087FD02C081E001C083E080939301B3
:1028D0000E946C118091E10083FF29C08091E20089
:1028E00083FF25C08091E100877F8093E10082E033
:1028F0008093930110928F018091E1008E7F8093ED
:10290000E1008091E2008E7F8093E2008091E200FE
:1029100080618093E20042E060E080E00E94D41297
:102920008091F00088608093F0000E945610FF9123
:10293000EF91BF91AF919F918F917F916F915F9137
:102940004F913F912F910F900FBE0F901F901895B0
:102950001F920F920FB60F9211242F933F934F9314
:102960005F936F937F938F939F93AF93BF93CF9317
:10297000DF93EF93FF93C091E900CF708091EC005B
:10298000D82FD17080FDD0E81092E9008091F0003E
:10299000877F8093F00078940E94EC141092E900F5
:1029A0008091F00088608093F000CD2BCF70C093B1
:1029B000E900FF91EF91DF91CF91BF91AF919F918E
:1029C0008F917F916F915F914F913F912F910F90D8
:1029D0000FBE0F901F9018951F93CF93DF93CDB725
:1029E000DEB7AA970FB6F894DEBF0FBECDBFE4E9FD
:1029F000F1E08091F100819321E0EC39F207C9F711
:102A00000E945C108091E80083FF24C180919401B2
:102A100090919501492F50E04A30510508F01AC1B4
:102A2000FA01EA59FF4F0C944316803881F082383E
:102A300009F010C1809198018F708093E900809116
:102A4000EB0085FB882780F91092E90006C0809191
:102A5000900190919101911182609091E800977F8F
:102A60009093E8008093F1001092F100C8C0282FE5
:102A70002D7F09F0EFC0882319F0823061F0EAC0A1
:102A800080919601813009F0E5C0933009F080E033
:102A9000809391012BC080919601811127C0809174
:102AA00098018F7009F4D6C08093E9002091EB0063
:102AB00020FF1CC0933021F48091EB00806214C091
:102AC0009091EB0090619093EB0021E030E0A90140
:102AD00002C0440F551F8A95E2F74093EA00109216
:102AE000EA008091EB0088608093EB001092E9008F
:102AF0008091E800877F86C08111ACC0109196015B
:102B00001F778091E3008078812B8093E300809190
:102B1000E800877F8093E8000E9409138091E80015
:102B200080FFFCCF8091E30080688093E300111167
:102B300002C082E001C083E0809393018BC0805883
:102B4000823008F087C080919601909197018C3D6A
:102B500053E0950779F583E08A838AE289834FB74A
:102B6000F894DE01139620E03EE051E2E32FF0E01E
:102B700050935700E49120FF03C0E295EF703F5F50
:102B8000EF708E2F90E0EA3010F0C79601C0C0962B
:102B90008D939D932F5F243149F74FBF8091E800BB
:102BA000877F8093E8006AE270E0CE0101960E9480
:102BB000151214C0AE014F5F5F4F609198010E94E3
:102BC0006E11BC01892B09F445C09091E800977FF4
:102BD0009093E80089819A810E9473128091E800A5
:102BE0008B778093E80036C08038A1F58091E800AB
:102BF000877F8093E80080918F018093F10080911E
:102C0000E8008E778093E8000E94091323C08111A9
:102C100021C0809196019091970199270297D4F451
:102C20008091E800877F8093E800809196018093EF
:102C30008F010E94091380918F01811106C080913C
:102C4000E30087FD02C081E001C084E0809393012E
:102C50000E9457108091E80083FF0AC08091E8002D
:102C6000877F8093E8008091EB0080628093EB0087
:102C7000AA960FB6F894DEBF0FBECDBFDF91CF91FD
:102C80001F9108950895EE0FFF1F0590F491E02D18
:062C90000994F894FFCF47
:0E2C9600057401A90F1510AC0FE10FAD0F0171
:00000001FF
